{
  "address": "0xE4Ef66Db4a35E557526c339684804537d200895a",
  "abi": [
    {
      "inputs": [],
      "stateMutability": "nonpayable",
      "type": "constructor"
    },
    {
      "anonymous": false,
      "inputs": [
        {
          "indexed": true,
          "internalType": "address",
          "name": "user",
          "type": "address"
        },
        {
          "indexed": true,
          "internalType": "address",
          "name": "proxy",
          "type": "address"
        },
        {
          "indexed": true,
          "internalType": "uint256",
          "name": "pid",
          "type": "uint256"
        },
        {
          "indexed": false,
          "internalType": "uint256",
          "name": "amount",
          "type": "uint256"
        }
      ],
      "name": "DepositByProxy",
      "type": "event"
    },
    {
      "anonymous": false,
      "inputs": [
        {
          "indexed": true,
          "internalType": "address",
          "name": "user",
          "type": "address"
        },
        {
          "indexed": true,
          "internalType": "address",
          "name": "proxy",
          "type": "address"
        },
        {
          "indexed": true,
          "internalType": "uint256",
          "name": "pid",
          "type": "uint256"
        }
      ],
      "name": "EmergencyWithdrawByProxy",
      "type": "event"
    },
    {
      "anonymous": false,
      "inputs": [
        {
          "indexed": true,
          "internalType": "address",
          "name": "user",
          "type": "address"
        },
        {
          "indexed": true,
          "internalType": "address",
          "name": "proxy",
          "type": "address"
        },
        {
          "indexed": true,
          "internalType": "uint256",
          "name": "pid",
          "type": "uint256"
        },
        {
          "indexed": false,
          "internalType": "uint256",
          "name": "amount",
          "type": "uint256"
        }
      ],
      "name": "WithdrawByProxy",
      "type": "event"
    },
    {
      "inputs": [],
      "name": "FARM_BOOSTER_PROXY_FACTORY",
      "outputs": [
        {
          "internalType": "address",
          "name": "",
          "type": "address"
        }
      ],
      "stateMutability": "view",
      "type": "function"
    },
    {
      "inputs": [],
      "name": "admin",
      "outputs": [
        {
          "internalType": "address",
          "name": "",
          "type": "address"
        }
      ],
      "stateMutability": "view",
      "type": "function"
    },
    {
      "inputs": [],
      "name": "cakeToken",
      "outputs": [
        {
          "internalType": "contract IERC20",
          "name": "",
          "type": "address"
        }
      ],
      "stateMutability": "view",
      "type": "function"
    },
    {
      "inputs": [
        {
          "internalType": "uint256",
          "name": "_pid",
          "type": "uint256"
        },
        {
          "internalType": "uint256",
          "name": "_amount",
          "type": "uint256"
        }
      ],
      "name": "deposit",
      "outputs": [],
      "stateMutability": "nonpayable",
      "type": "function"
    },
    {
      "inputs": [
        {
          "internalType": "uint256",
          "name": "_pid",
          "type": "uint256"
        }
      ],
      "name": "emergencyWithdraw",
      "outputs": [],
      "stateMutability": "nonpayable",
      "type": "function"
    },
    {
      "inputs": [],
      "name": "farmBooster",
      "outputs": [
        {
          "internalType": "contract IFarmBooster",
          "name": "",
          "type": "address"
        }
      ],
      "stateMutability": "view",
      "type": "function"
    },
    {
      "inputs": [
        {
          "internalType": "address",
          "name": "_admin",
          "type": "address"
        },
        {
          "internalType": "address",
          "name": "_farmBooster",
          "type": "address"
        },
        {
          "internalType": "address",
          "name": "_masterchefV2",
          "type": "address"
        },
        {
          "internalType": "address",
          "name": "_cakeToken",
          "type": "address"
        }
      ],
      "name": "initialize",
      "outputs": [],
      "stateMutability": "nonpayable",
      "type": "function"
    },
    {
      "inputs": [],
      "name": "isInitialized",
      "outputs": [
        {
          "internalType": "bool",
          "name": "",
          "type": "bool"
        }
      ],
      "stateMutability": "view",
      "type": "function"
    },
    {
      "inputs": [
        {
          "internalType": "address",
          "name": "",
          "type": "address"
        }
      ],
      "name": "lpApproved",
      "outputs": [
        {
          "internalType": "bool",
          "name": "",
          "type": "bool"
        }
      ],
      "stateMutability": "view",
      "type": "function"
    },
    {
      "inputs": [],
      "name": "masterchefV2",
      "outputs": [
        {
          "internalType": "contract IMasterChefV2",
          "name": "",
          "type": "address"
        }
      ],
      "stateMutability": "view",
      "type": "function"
    },
    {
      "inputs": [
        {
          "internalType": "uint256",
          "name": "_pid",
          "type": "uint256"
        },
        {
          "internalType": "uint256",
          "name": "_amount",
          "type": "uint256"
        }
      ],
      "name": "withdraw",
      "outputs": [],
      "stateMutability": "nonpayable",
      "type": "function"
    }
  ],
  "transactionHash": "0x99d4b01533ac016dbe3abd65f1d2afcfb5f475406915483137ab6b78624085bb",
  "args": [],
  "solcInputHash": "fd21b0eb6b62d9c70847699da4cb3d7f",
  "bytecode": "0x60a060405234801561001057600080fd5b5060016000553360805260805161197661003c60003960008181610167015261112e01526119766000f3fe608060405234801561001057600080fd5b50600436106100c95760003560e01c80638904bf2f11610081578063f851a4401161005b578063f851a440146101ef578063f8c8765e1461020f578063fbcdbd0e1461022257600080fd5b80638904bf2f1461019c578063cb528b52146101bc578063e2bbb158146101dc57600080fd5b8063441a3e70116100b2578063441a3e701461014d57806351035703146101625780635312ea8e1461018957600080fd5b80630643aae1146100ce578063392e53cd14610118575b600080fd5b6003546100ee9073ffffffffffffffffffffffffffffffffffffffff1681565b60405173ffffffffffffffffffffffffffffffffffffffff90911681526020015b60405180910390f35b60045461013d9074010000000000000000000000000000000000000000900460ff1681565b604051901515815260200161010f565b61016061015b366004611779565b610245565b005b6100ee7f000000000000000000000000000000000000000000000000000000000000000081565b61016061019736600461179b565b610675565b6002546100ee9073ffffffffffffffffffffffffffffffffffffffff1681565b6001546100ee9073ffffffffffffffffffffffffffffffffffffffff1681565b6101606101ea366004611779565b610b2e565b6004546100ee9073ffffffffffffffffffffffffffffffffffffffff1681565b61016061021d3660046117d6565b611091565b61013d610230366004611832565b60056020526000908152604090205460ff1681565b600260005414156102b7576040517f08c379a000000000000000000000000000000000000000000000000000000000815260206004820152601f60248201527f5265656e7472616e637947756172643a207265656e7472616e742063616c6c0060448201526064015b60405180910390fd5b600260005560045473ffffffffffffffffffffffffffffffffffffffff16331461033d576040517f08c379a000000000000000000000000000000000000000000000000000000000815260206004820152600b60248201527f61646d696e3a207775743f00000000000000000000000000000000000000000060448201526064016102ae565b600154604080517f081e3eda000000000000000000000000000000000000000000000000000000008152905160009273ffffffffffffffffffffffffffffffffffffffff169163081e3eda916004808301926020929190829003018186803b1580156103a857600080fd5b505afa1580156103bc573d6000803e3d6000fd5b505050506040513d601f19601f820116820180604052508101906103e0919061184f565b905080831061044b576040517f08c379a000000000000000000000000000000000000000000000000000000000815260206004820152601160248201527f506f6f6c206973206e6f7420657869737400000000000000000000000000000060448201526064016102ae565b6001546040517f441a3e70000000000000000000000000000000000000000000000000000000008152600481018590526024810184905273ffffffffffffffffffffffffffffffffffffffff9091169063441a3e7090604401600060405180830381600087803b1580156104be57600080fd5b505af11580156104d2573d6000803e3d6000fd5b50506001546040517f78ed5d1f000000000000000000000000000000000000000000000000000000008152600481018790526000935073ffffffffffffffffffffffffffffffffffffffff90911691506378ed5d1f9060240160206040518083038186803b15801561054357600080fd5b505afa158015610557573d6000803e3d6000fd5b505050506040513d601f19601f8201168201806040525081019061057b9190611868565b905061059e73ffffffffffffffffffffffffffffffffffffffff8216338561125d565b6105a6611336565b6003546040517f17adb6ee0000000000000000000000000000000000000000000000000000000081523360048201526024810186905273ffffffffffffffffffffffffffffffffffffffff909116906317adb6ee90604401600060405180830381600087803b15801561061857600080fd5b505af115801561062c573d6000803e3d6000fd5b505060405185815286925030915033907fa8c1f92a8228d8f30d30e0539f7256c2847eaf35775bdc0a5a9c0a5a066f31d3906020015b60405180910390a4505060016000555050565b600260005414156106e2576040517f08c379a000000000000000000000000000000000000000000000000000000000815260206004820152601f60248201527f5265656e7472616e637947756172643a207265656e7472616e742063616c6c0060448201526064016102ae565b600260005560045473ffffffffffffffffffffffffffffffffffffffff163314610768576040517f08c379a000000000000000000000000000000000000000000000000000000000815260206004820152600b60248201527f61646d696e3a207775743f00000000000000000000000000000000000000000060448201526064016102ae565b600154604080517f081e3eda000000000000000000000000000000000000000000000000000000008152905160009273ffffffffffffffffffffffffffffffffffffffff169163081e3eda916004808301926020929190829003018186803b1580156107d357600080fd5b505afa1580156107e7573d6000803e3d6000fd5b505050506040513d601f19601f8201168201806040525081019061080b919061184f565b9050808210610876576040517f08c379a000000000000000000000000000000000000000000000000000000000815260206004820152601160248201527f506f6f6c206973206e6f7420657869737400000000000000000000000000000060448201526064016102ae565b6001546040517f5312ea8e0000000000000000000000000000000000000000000000000000000081526004810184905273ffffffffffffffffffffffffffffffffffffffff90911690635312ea8e90602401600060405180830381600087803b1580156108e257600080fd5b505af11580156108f6573d6000803e3d6000fd5b50506001546040517f78ed5d1f000000000000000000000000000000000000000000000000000000008152600481018690526000935073ffffffffffffffffffffffffffffffffffffffff90911691506378ed5d1f9060240160206040518083038186803b15801561096757600080fd5b505afa15801561097b573d6000803e3d6000fd5b505050506040513d601f19601f8201168201806040525081019061099f9190611868565b6040517f70a08231000000000000000000000000000000000000000000000000000000008152306004820152909150610a6390339073ffffffffffffffffffffffffffffffffffffffff8416906370a082319060240160206040518083038186803b158015610a0d57600080fd5b505afa158015610a21573d6000803e3d6000fd5b505050506040513d601f19601f82011682018060405250810190610a45919061184f565b73ffffffffffffffffffffffffffffffffffffffff8416919061125d565b610a6b611336565b6003546040517f17adb6ee0000000000000000000000000000000000000000000000000000000081523360048201526024810185905273ffffffffffffffffffffffffffffffffffffffff909116906317adb6ee90604401600060405180830381600087803b158015610add57600080fd5b505af1158015610af1573d6000803e3d6000fd5b505060405185925030915033907f238154946c0c149f8f44d71bfa79cf891af27a2567d540447b44c7c532529e3290600090a45050600160005550565b60026000541415610b9b576040517f08c379a000000000000000000000000000000000000000000000000000000000815260206004820152601f60248201527f5265656e7472616e637947756172643a207265656e7472616e742063616c6c0060448201526064016102ae565b600260005560045473ffffffffffffffffffffffffffffffffffffffff163314610c21576040517f08c379a000000000000000000000000000000000000000000000000000000000815260206004820152600b60248201527f61646d696e3a207775743f00000000000000000000000000000000000000000060448201526064016102ae565b600154604080517f081e3eda000000000000000000000000000000000000000000000000000000008152905160009273ffffffffffffffffffffffffffffffffffffffff169163081e3eda916004808301926020929190829003018186803b158015610c8c57600080fd5b505afa158015610ca0573d6000803e3d6000fd5b505050506040513d601f19601f82011682018060405250810190610cc4919061184f565b9050808310610d2f576040517f08c379a000000000000000000000000000000000000000000000000000000000815260206004820152601160248201527f506f6f6c206973206e6f7420657869737400000000000000000000000000000060448201526064016102ae565b6001546040517f78ed5d1f0000000000000000000000000000000000000000000000000000000081526004810185905260009173ffffffffffffffffffffffffffffffffffffffff16906378ed5d1f9060240160206040518083038186803b158015610d9a57600080fd5b505afa158015610dae573d6000803e3d6000fd5b505050506040513d601f19601f82011682018060405250810190610dd29190611868565b9050610df673ffffffffffffffffffffffffffffffffffffffff8216333086611407565b73ffffffffffffffffffffffffffffffffffffffff811660009081526005602052604090205460ff16610f3e576001546040517f095ea7b300000000000000000000000000000000000000000000000000000000815273ffffffffffffffffffffffffffffffffffffffff91821660048201527fffffffffffffffffffffffffffffffffffffffffffffffffffffffffffffffff60248201529082169063095ea7b390604401602060405180830381600087803b158015610eb657600080fd5b505af1158015610eca573d6000803e3d6000fd5b505050506040513d601f19601f82011682018060405250810190610eee9190611885565b5073ffffffffffffffffffffffffffffffffffffffff8116600090815260056020526040902080547fffffffffffffffffffffffffffffffffffffffffffffffffffffffffffffff001660011790555b6001546040517fe2bbb158000000000000000000000000000000000000000000000000000000008152600481018690526024810185905273ffffffffffffffffffffffffffffffffffffffff9091169063e2bbb15890604401600060405180830381600087803b158015610fb157600080fd5b505af1158015610fc5573d6000803e3d6000fd5b50505050610fd1611336565b6003546040517f17adb6ee0000000000000000000000000000000000000000000000000000000081523360048201526024810186905273ffffffffffffffffffffffffffffffffffffffff909116906317adb6ee90604401600060405180830381600087803b15801561104357600080fd5b505af1158015611057573d6000803e3d6000fd5b505060405185815286925030915033907f138d30356a982952b65b72a90f5ee823874132ec8dd8b2fa5c42499228670fa690602001610662565b60045474010000000000000000000000000000000000000000900460ff1615611116576040517f08c379a000000000000000000000000000000000000000000000000000000000815260206004820152601f60248201527f4f7065726174696f6e733a20416c726561647920696e697469616c697a65640060448201526064016102ae565b3373ffffffffffffffffffffffffffffffffffffffff7f000000000000000000000000000000000000000000000000000000000000000016146111b5576040517f08c379a000000000000000000000000000000000000000000000000000000000815260206004820152601760248201527f4f7065726174696f6e733a204e6f7420666163746f727900000000000000000060448201526064016102ae565b6004805473ffffffffffffffffffffffffffffffffffffffff9586167fffffffffffffffffffffff0000000000000000000000000000000000000000009091161774010000000000000000000000000000000000000000179055600380549385167fffffffffffffffffffffffff0000000000000000000000000000000000000000948516179055600180549285169284169290921790915560028054919093169116179055565b60405173ffffffffffffffffffffffffffffffffffffffff83166024820152604481018290526113319084907fa9059cbb00000000000000000000000000000000000000000000000000000000906064015b604080517fffffffffffffffffffffffffffffffffffffffffffffffffffffffffffffffe08184030181529190526020810180517bffffffffffffffffffffffffffffffffffffffffffffffffffffffff167fffffffff000000000000000000000000000000000000000000000000000000009093169290921790915261146b565b505050565b6002546040517f70a0823100000000000000000000000000000000000000000000000000000000815230600482015260009173ffffffffffffffffffffffffffffffffffffffff16906370a082319060240160206040518083038186803b1580156113a057600080fd5b505afa1580156113b4573d6000803e3d6000fd5b505050506040513d601f19601f820116820180604052508101906113d8919061184f565b90508015611404576002546114049073ffffffffffffffffffffffffffffffffffffffff16338361125d565b50565b60405173ffffffffffffffffffffffffffffffffffffffff808516602483015283166044820152606481018290526114659085907f23b872dd00000000000000000000000000000000000000000000000000000000906084016112af565b50505050565b60006114cd826040518060400160405280602081526020017f5361666545524332303a206c6f772d6c6576656c2063616c6c206661696c65648152508573ffffffffffffffffffffffffffffffffffffffff166115779092919063ffffffff16565b80519091501561133157808060200190518101906114eb9190611885565b611331576040517f08c379a000000000000000000000000000000000000000000000000000000000815260206004820152602a60248201527f5361666545524332303a204552433230206f7065726174696f6e20646964206e60448201527f6f7420737563636565640000000000000000000000000000000000000000000060648201526084016102ae565b60606115868484600085611590565b90505b9392505050565b606082471015611622576040517f08c379a000000000000000000000000000000000000000000000000000000000815260206004820152602660248201527f416464726573733a20696e73756666696369656e742062616c616e636520666f60448201527f722063616c6c000000000000000000000000000000000000000000000000000060648201526084016102ae565b73ffffffffffffffffffffffffffffffffffffffff85163b6116a0576040517f08c379a000000000000000000000000000000000000000000000000000000000815260206004820152601d60248201527f416464726573733a2063616c6c20746f206e6f6e2d636f6e747261637400000060448201526064016102ae565b6000808673ffffffffffffffffffffffffffffffffffffffff1685876040516116c991906118d3565b60006040518083038185875af1925050503d8060008114611706576040519150601f19603f3d011682016040523d82523d6000602084013e61170b565b606091505b509150915061171b828286611726565b979650505050505050565b60608315611735575081611589565b8251156117455782518084602001fd5b816040517f08c379a00000000000000000000000000000000000000000000000000000000081526004016102ae91906118ef565b6000806040838503121561178c57600080fd5b50508035926020909101359150565b6000602082840312156117ad57600080fd5b5035919050565b73ffffffffffffffffffffffffffffffffffffffff8116811461140457600080fd5b600080600080608085870312156117ec57600080fd5b84356117f7816117b4565b93506020850135611807816117b4565b92506040850135611817816117b4565b91506060850135611827816117b4565b939692955090935050565b60006020828403121561184457600080fd5b8135611589816117b4565b60006020828403121561186157600080fd5b5051919050565b60006020828403121561187a57600080fd5b8151611589816117b4565b60006020828403121561189757600080fd5b8151801515811461158957600080fd5b60005b838110156118c25781810151838201526020016118aa565b838111156114655750506000910152565b600082516118e58184602087016118a7565b9190910192915050565b602081526000825180602084015261190e8160408501602087016118a7565b601f017fffffffffffffffffffffffffffffffffffffffffffffffffffffffffffffffe016919091016040019291505056fea264697066735822122022b1275feb62cf81f51efa028e848d425b03f0e2e2e7c39e0e5b9ee22202516364736f6c63430008090033",
  "devdoc": {
    "kind": "dev",
    "methods": {
      "deposit(uint256,uint256)": {
        "details": "It can only be called by admin.",
        "params": {
          "_amount": "Amount of LP tokens to deposit.",
          "_pid": "The id of the pool."
        }
      },
      "emergencyWithdraw(uint256)": {
        "details": "It can only be called by admin.",
        "params": {
          "_pid": "The id of the pool."
        }
      },
      "initialize(address,address,address,address)": {
        "details": "It can only be called once.",
        "params": {
          "_admin": ": the admin address",
          "_cakeToken": ": the address of the cake token",
          "_farmBooster": ": the farm booster address",
          "_masterchefV2": ": the address of the Masterchef V2"
        }
      },
      "withdraw(uint256,uint256)": {
        "details": "It can only be called by admin.",
        "params": {
          "_amount": "Amount of LP tokens to withdraw.",
          "_pid": "The id of the pool."
        }
      }
    },
    "version": 1
  },
  "userdoc": {
    "kind": "user",
    "methods": {
      "constructor": {
        "notice": "Constructor"
      },
      "deposit(uint256,uint256)": {
        "notice": "Deposit LP tokens to pool."
      },
      "emergencyWithdraw(uint256)": {
        "notice": "Withdraw without caring about the rewards. EMERGENCY ONLY."
      },
      "initialize(address,address,address,address)": {
        "notice": "It initializes the contract"
      },
      "withdraw(uint256,uint256)": {
        "notice": "Withdraw LP tokens from pool."
      }
    },
    "version": 1
  },
  "storageLayout": {
    "storage": [
      {
        "astId": 207,
        "contract": "contracts/FarmBoosterProxy.sol:FarmBoosterProxy",
        "label": "_status",
        "offset": 0,
        "slot": "0",
        "type": "t_uint256"
      },
      {
        "astId": 4750,
        "contract": "contracts/FarmBoosterProxy.sol:FarmBoosterProxy",
        "label": "masterchefV2",
        "offset": 0,
        "slot": "1",
        "type": "t_contract(IMasterChefV2)5571"
      },
      {
        "astId": 4753,
        "contract": "contracts/FarmBoosterProxy.sol:FarmBoosterProxy",
        "label": "cakeToken",
        "offset": 0,
        "slot": "2",
        "type": "t_contract(IERC20)314"
      },
      {
        "astId": 4756,
        "contract": "contracts/FarmBoosterProxy.sol:FarmBoosterProxy",
        "label": "farmBooster",
        "offset": 0,
        "slot": "3",
        "type": "t_contract(IFarmBooster)5497"
      },
      {
        "astId": 4758,
        "contract": "contracts/FarmBoosterProxy.sol:FarmBoosterProxy",
        "label": "admin",
        "offset": 0,
        "slot": "4",
        "type": "t_address"
      },
      {
        "astId": 4760,
        "contract": "contracts/FarmBoosterProxy.sol:FarmBoosterProxy",
        "label": "isInitialized",
        "offset": 20,
        "slot": "4",
        "type": "t_bool"
      },
      {
        "astId": 4764,
        "contract": "contracts/FarmBoosterProxy.sol:FarmBoosterProxy",
        "label": "lpApproved",
        "offset": 0,
        "slot": "5",
        "type": "t_mapping(t_address,t_bool)"
      }
    ],
    "types": {
      "t_address": {
        "encoding": "inplace",
        "label": "address",
        "numberOfBytes": "20"
      },
      "t_bool": {
        "encoding": "inplace",
        "label": "bool",
        "numberOfBytes": "1"
      },
      "t_contract(IERC20)314": {
        "encoding": "inplace",
        "label": "contract IERC20",
        "numberOfBytes": "20"
      },
      "t_contract(IFarmBooster)5497": {
        "encoding": "inplace",
        "label": "contract IFarmBooster",
        "numberOfBytes": "20"
      },
      "t_contract(IMasterChefV2)5571": {
        "encoding": "inplace",
        "label": "contract IMasterChefV2",
        "numberOfBytes": "20"
      },
      "t_mapping(t_address,t_bool)": {
        "encoding": "mapping",
        "key": "t_address",
        "label": "mapping(address => bool)",
        "numberOfBytes": "32",
        "value": "t_bool"
      },
      "t_uint256": {
        "encoding": "inplace",
        "label": "uint256",
        "numberOfBytes": "32"
      }
    }
  }
}