{
  "address": "0x44054317DD02d318d6d2ddf1de18B766AC3A6a38",
  "abi": [
    {
      "inputs": [
        {
          "internalType": "contract IBEP20",
          "name": "_TIKTAK",
          "type": "address"
        },
        {
          "internalType": "address",
          "name": "_burnAdmin",
          "type": "address"
        }
      ],
      "stateMutability": "nonpayable",
      "type": "constructor"
    },
    {
      "anonymous": false,
      "inputs": [
        {
          "indexed": true,
          "internalType": "uint256",
          "name": "pid",
          "type": "uint256"
        },
        {
          "indexed": false,
          "internalType": "uint256",
          "name": "allocPoint",
          "type": "uint256"
        },
        {
          "indexed": true,
          "internalType": "contract IBEP20",
          "name": "lpToken",
          "type": "address"
        },
        {
          "indexed": false,
          "internalType": "bool",
          "name": "isRegular",
          "type": "bool"
        }
      ],
      "name": "AddPool",
      "type": "event"
    },
    {
      "anonymous": false,
      "inputs": [
        {
          "indexed": true,
          "internalType": "address",
          "name": "user",
          "type": "address"
        },
        {
          "indexed": true,
          "internalType": "uint256",
          "name": "pid",
          "type": "uint256"
        },
        {
          "indexed": false,
          "internalType": "uint256",
          "name": "amount",
          "type": "uint256"
        }
      ],
      "name": "Deposit",
      "type": "event"
    },
    {
      "anonymous": false,
      "inputs": [
        {
          "indexed": true,
          "internalType": "address",
          "name": "user",
          "type": "address"
        },
        {
          "indexed": true,
          "internalType": "uint256",
          "name": "pid",
          "type": "uint256"
        },
        {
          "indexed": false,
          "internalType": "uint256",
          "name": "amount",
          "type": "uint256"
        }
      ],
      "name": "EmergencyWithdraw",
      "type": "event"
    },
    {
      "anonymous": false,
      "inputs": [
        {
          "indexed": true,
          "internalType": "address",
          "name": "previousOwner",
          "type": "address"
        },
        {
          "indexed": true,
          "internalType": "address",
          "name": "newOwner",
          "type": "address"
        }
      ],
      "name": "OwnershipTransferred",
      "type": "event"
    },
    {
      "anonymous": false,
      "inputs": [
        {
          "indexed": true,
          "internalType": "uint256",
          "name": "pid",
          "type": "uint256"
        },
        {
          "indexed": false,
          "internalType": "uint256",
          "name": "allocPoint",
          "type": "uint256"
        }
      ],
      "name": "SetPool",
      "type": "event"
    },
    {
      "anonymous": false,
      "inputs": [
        {
          "indexed": true,
          "internalType": "address",
          "name": "boostContract",
          "type": "address"
        }
      ],
      "name": "UpdateBoostContract",
      "type": "event"
    },
    {
      "anonymous": false,
      "inputs": [
        {
          "indexed": true,
          "internalType": "address",
          "name": "user",
          "type": "address"
        },
        {
          "indexed": false,
          "internalType": "uint256",
          "name": "pid",
          "type": "uint256"
        },
        {
          "indexed": false,
          "internalType": "uint256",
          "name": "oldMultiplier",
          "type": "uint256"
        },
        {
          "indexed": false,
          "internalType": "uint256",
          "name": "newMultiplier",
          "type": "uint256"
        }
      ],
      "name": "UpdateBoostMultiplier",
      "type": "event"
    },
    {
      "anonymous": false,
      "inputs": [
        {
          "indexed": true,
          "internalType": "address",
          "name": "oldAdmin",
          "type": "address"
        },
        {
          "indexed": true,
          "internalType": "address",
          "name": "newAdmin",
          "type": "address"
        }
      ],
      "name": "UpdateBurnAdmin",
      "type": "event"
    },
    {
      "anonymous": false,
      "inputs": [
        {
          "indexed": true,
          "internalType": "uint256",
          "name": "pid",
          "type": "uint256"
        },
        {
          "indexed": false,
          "internalType": "uint256",
          "name": "lastRewardBlock",
          "type": "uint256"
        },
        {
          "indexed": false,
          "internalType": "uint256",
          "name": "lpSupply",
          "type": "uint256"
        },
        {
          "indexed": false,
          "internalType": "uint256",
          "name": "acctiktakPerShare",
          "type": "uint256"
        }
      ],
      "name": "UpdatePool",
      "type": "event"
    },
    {
      "anonymous": false,
      "inputs": [
        {
          "indexed": true,
          "internalType": "address",
          "name": "user",
          "type": "address"
        },
        {
          "indexed": false,
          "internalType": "bool",
          "name": "isValid",
          "type": "bool"
        }
      ],
      "name": "UpdateWhiteList",
      "type": "event"
    },
    {
      "anonymous": false,
      "inputs": [
        {
          "indexed": false,
          "internalType": "uint256",
          "name": "burnRate",
          "type": "uint256"
        },
        {
          "indexed": false,
          "internalType": "uint256",
          "name": "regularFarmRate",
          "type": "uint256"
        },
        {
          "indexed": false,
          "internalType": "uint256",
          "name": "specialFarmRate",
          "type": "uint256"
        }
      ],
      "name": "UpdatetiktakRate",
      "type": "event"
    },
    {
      "anonymous": false,
      "inputs": [
        {
          "indexed": true,
          "internalType": "address",
          "name": "user",
          "type": "address"
        },
        {
          "indexed": true,
          "internalType": "uint256",
          "name": "pid",
          "type": "uint256"
        },
        {
          "indexed": false,
          "internalType": "uint256",
          "name": "amount",
          "type": "uint256"
        }
      ],
      "name": "Withdraw",
      "type": "event"
    },
    {
      "inputs": [],
      "name": "ACC_TIKTAK_PRECISION",
      "outputs": [
        {
          "internalType": "uint256",
          "name": "",
          "type": "uint256"
        }
      ],
      "stateMutability": "view",
      "type": "function"
    },
    {
      "inputs": [],
      "name": "BOOST_PRECISION",
      "outputs": [
        {
          "internalType": "uint256",
          "name": "",
          "type": "uint256"
        }
      ],
      "stateMutability": "view",
      "type": "function"
    },
    {
      "inputs": [],
      "name": "MASTERCHEF_TIKTAK_PER_BLOCK",
      "outputs": [
        {
          "internalType": "uint256",
          "name": "",
          "type": "uint256"
        }
      ],
      "stateMutability": "view",
      "type": "function"
    },
    {
      "inputs": [],
      "name": "MAX_BOOST_PRECISION",
      "outputs": [
        {
          "internalType": "uint256",
          "name": "",
          "type": "uint256"
        }
      ],
      "stateMutability": "view",
      "type": "function"
    },
    {
      "inputs": [],
      "name": "TIKTAK",
      "outputs": [
        {
          "internalType": "contract IBEP20",
          "name": "",
          "type": "address"
        }
      ],
      "stateMutability": "view",
      "type": "function"
    },
    {
      "inputs": [],
      "name": "TIKTAK_RATE_TOTAL_PRECISION",
      "outputs": [
        {
          "internalType": "uint256",
          "name": "",
          "type": "uint256"
        }
      ],
      "stateMutability": "view",
      "type": "function"
    },
    {
      "inputs": [
        {
          "internalType": "uint256",
          "name": "_allocPoint",
          "type": "uint256"
        },
        {
          "internalType": "contract IBEP20",
          "name": "_lpToken",
          "type": "address"
        },
        {
          "internalType": "bool",
          "name": "_isRegular",
          "type": "bool"
        },
        {
          "internalType": "bool",
          "name": "_withUpdate",
          "type": "bool"
        }
      ],
      "name": "add",
      "outputs": [],
      "stateMutability": "nonpayable",
      "type": "function"
    },
    {
      "inputs": [],
      "name": "boostContract",
      "outputs": [
        {
          "internalType": "address",
          "name": "",
          "type": "address"
        }
      ],
      "stateMutability": "view",
      "type": "function"
    },
    {
      "inputs": [],
      "name": "burnAdmin",
      "outputs": [
        {
          "internalType": "address",
          "name": "",
          "type": "address"
        }
      ],
      "stateMutability": "view",
      "type": "function"
    },
    {
      "inputs": [
        {
          "internalType": "bool",
          "name": "_withUpdate",
          "type": "bool"
        }
      ],
      "name": "burntiktak",
      "outputs": [],
      "stateMutability": "nonpayable",
      "type": "function"
    },
    {
      "inputs": [
        {
          "internalType": "uint256",
          "name": "_pid",
          "type": "uint256"
        },
        {
          "internalType": "uint256",
          "name": "_amount",
          "type": "uint256"
        }
      ],
      "name": "deposit",
      "outputs": [],
      "stateMutability": "nonpayable",
      "type": "function"
    },
    {
      "inputs": [
        {
          "internalType": "uint256",
          "name": "_pid",
          "type": "uint256"
        }
      ],
      "name": "emergencyWithdraw",
      "outputs": [],
      "stateMutability": "nonpayable",
      "type": "function"
    },
    {
      "inputs": [
        {
          "internalType": "address",
          "name": "_user",
          "type": "address"
        },
        {
          "internalType": "uint256",
          "name": "_pid",
          "type": "uint256"
        }
      ],
      "name": "getBoostMultiplier",
      "outputs": [
        {
          "internalType": "uint256",
          "name": "",
          "type": "uint256"
        }
      ],
      "stateMutability": "view",
      "type": "function"
    },
    {
      "inputs": [],
      "name": "harvestRewardsFromOwner",
      "outputs": [],
      "stateMutability": "nonpayable",
      "type": "function"
    },
    {
      "inputs": [],
      "name": "lastBurnedBlock",
      "outputs": [
        {
          "internalType": "uint256",
          "name": "",
          "type": "uint256"
        }
      ],
      "stateMutability": "view",
      "type": "function"
    },
    {
      "inputs": [
        {
          "internalType": "uint256",
          "name": "",
          "type": "uint256"
        }
      ],
      "name": "lpToken",
      "outputs": [
        {
          "internalType": "contract IBEP20",
          "name": "",
          "type": "address"
        }
      ],
      "stateMutability": "view",
      "type": "function"
    },
    {
      "inputs": [],
      "name": "massUpdatePools",
      "outputs": [],
      "stateMutability": "nonpayable",
      "type": "function"
    },
    {
      "inputs": [],
      "name": "owner",
      "outputs": [
        {
          "internalType": "address",
          "name": "",
          "type": "address"
        }
      ],
      "stateMutability": "view",
      "type": "function"
    },
    {
      "inputs": [
        {
          "internalType": "uint256",
          "name": "_pid",
          "type": "uint256"
        },
        {
          "internalType": "address",
          "name": "_user",
          "type": "address"
        }
      ],
      "name": "pendingtiktak",
      "outputs": [
        {
          "internalType": "uint256",
          "name": "",
          "type": "uint256"
        }
      ],
      "stateMutability": "view",
      "type": "function"
    },
    {
      "inputs": [
        {
          "internalType": "uint256",
          "name": "",
          "type": "uint256"
        }
      ],
      "name": "poolInfo",
      "outputs": [
        {
          "internalType": "uint256",
          "name": "acctiktakPerShare",
          "type": "uint256"
        },
        {
          "internalType": "uint256",
          "name": "lastRewardBlock",
          "type": "uint256"
        },
        {
          "internalType": "uint256",
          "name": "allocPoint",
          "type": "uint256"
        },
        {
          "internalType": "uint256",
          "name": "totalBoostedShare",
          "type": "uint256"
        },
        {
          "internalType": "bool",
          "name": "isRegular",
          "type": "bool"
        }
      ],
      "stateMutability": "view",
      "type": "function"
    },
    {
      "inputs": [],
      "name": "poolLength",
      "outputs": [
        {
          "internalType": "uint256",
          "name": "pools",
          "type": "uint256"
        }
      ],
      "stateMutability": "view",
      "type": "function"
    },
    {
      "inputs": [],
      "name": "renounceOwnership",
      "outputs": [],
      "stateMutability": "nonpayable",
      "type": "function"
    },
    {
      "inputs": [
        {
          "internalType": "uint256",
          "name": "_pid",
          "type": "uint256"
        },
        {
          "internalType": "uint256",
          "name": "_allocPoint",
          "type": "uint256"
        },
        {
          "internalType": "bool",
          "name": "_withUpdate",
          "type": "bool"
        }
      ],
      "name": "set",
      "outputs": [],
      "stateMutability": "nonpayable",
      "type": "function"
    },
    {
      "inputs": [
        {
          "internalType": "bool",
          "name": "_isRegular",
          "type": "bool"
        }
      ],
      "name": "tiktakPerBlock",
      "outputs": [
        {
          "internalType": "uint256",
          "name": "amount",
          "type": "uint256"
        }
      ],
      "stateMutability": "view",
      "type": "function"
    },
    {
      "inputs": [],
      "name": "tiktakPerBlockToBurn",
      "outputs": [
        {
          "internalType": "uint256",
          "name": "amount",
          "type": "uint256"
        }
      ],
      "stateMutability": "view",
      "type": "function"
    },
    {
      "inputs": [],
      "name": "tiktakRateToBurn",
      "outputs": [
        {
          "internalType": "uint256",
          "name": "",
          "type": "uint256"
        }
      ],
      "stateMutability": "view",
      "type": "function"
    },
    {
      "inputs": [],
      "name": "tiktakRateToRegularFarm",
      "outputs": [
        {
          "internalType": "uint256",
          "name": "",
          "type": "uint256"
        }
      ],
      "stateMutability": "view",
      "type": "function"
    },
    {
      "inputs": [],
      "name": "tiktakRateToSpecialFarm",
      "outputs": [
        {
          "internalType": "uint256",
          "name": "",
          "type": "uint256"
        }
      ],
      "stateMutability": "view",
      "type": "function"
    },
    {
      "inputs": [],
      "name": "totalRegularAllocPoint",
      "outputs": [
        {
          "internalType": "uint256",
          "name": "",
          "type": "uint256"
        }
      ],
      "stateMutability": "view",
      "type": "function"
    },
    {
      "inputs": [],
      "name": "totalSpecialAllocPoint",
      "outputs": [
        {
          "internalType": "uint256",
          "name": "",
          "type": "uint256"
        }
      ],
      "stateMutability": "view",
      "type": "function"
    },
    {
      "inputs": [
        {
          "internalType": "address",
          "name": "newOwner",
          "type": "address"
        }
      ],
      "name": "transferOwnership",
      "outputs": [],
      "stateMutability": "nonpayable",
      "type": "function"
    },
    {
      "inputs": [
        {
          "internalType": "address",
          "name": "_newBoostContract",
          "type": "address"
        }
      ],
      "name": "updateBoostContract",
      "outputs": [],
      "stateMutability": "nonpayable",
      "type": "function"
    },
    {
      "inputs": [
        {
          "internalType": "address",
          "name": "_user",
          "type": "address"
        },
        {
          "internalType": "uint256",
          "name": "_pid",
          "type": "uint256"
        },
        {
          "internalType": "uint256",
          "name": "_newMultiplier",
          "type": "uint256"
        }
      ],
      "name": "updateBoostMultiplier",
      "outputs": [],
      "stateMutability": "nonpayable",
      "type": "function"
    },
    {
      "inputs": [
        {
          "internalType": "address",
          "name": "_newAdmin",
          "type": "address"
        }
      ],
      "name": "updateBurnAdmin",
      "outputs": [],
      "stateMutability": "nonpayable",
      "type": "function"
    },
    {
      "inputs": [
        {
          "internalType": "uint256",
          "name": "_pid",
          "type": "uint256"
        }
      ],
      "name": "updatePool",
      "outputs": [
        {
          "components": [
            {
              "internalType": "uint256",
              "name": "acctiktakPerShare",
              "type": "uint256"
            },
            {
              "internalType": "uint256",
              "name": "lastRewardBlock",
              "type": "uint256"
            },
            {
              "internalType": "uint256",
              "name": "allocPoint",
              "type": "uint256"
            },
            {
              "internalType": "uint256",
              "name": "totalBoostedShare",
              "type": "uint256"
            },
            {
              "internalType": "bool",
              "name": "isRegular",
              "type": "bool"
            }
          ],
          "internalType": "struct MasterChefV2.PoolInfo",
          "name": "pool",
          "type": "tuple"
        }
      ],
      "stateMutability": "nonpayable",
      "type": "function"
    },
    {
      "inputs": [
        {
          "internalType": "address",
          "name": "_user",
          "type": "address"
        },
        {
          "internalType": "bool",
          "name": "_isValid",
          "type": "bool"
        }
      ],
      "name": "updateWhiteList",
      "outputs": [],
      "stateMutability": "nonpayable",
      "type": "function"
    },
    {
      "inputs": [
        {
          "internalType": "uint256",
          "name": "_burnRate",
          "type": "uint256"
        },
        {
          "internalType": "uint256",
          "name": "_regularFarmRate",
          "type": "uint256"
        },
        {
          "internalType": "uint256",
          "name": "_specialFarmRate",
          "type": "uint256"
        },
        {
          "internalType": "bool",
          "name": "_withUpdate",
          "type": "bool"
        }
      ],
      "name": "updatetiktakRate",
      "outputs": [],
      "stateMutability": "nonpayable",
      "type": "function"
    },
    {
      "inputs": [
        {
          "internalType": "uint256",
          "name": "",
          "type": "uint256"
        },
        {
          "internalType": "address",
          "name": "",
          "type": "address"
        }
      ],
      "name": "userInfo",
      "outputs": [
        {
          "internalType": "uint256",
          "name": "amount",
          "type": "uint256"
        },
        {
          "internalType": "uint256",
          "name": "rewardDebt",
          "type": "uint256"
        },
        {
          "internalType": "uint256",
          "name": "boostMultiplier",
          "type": "uint256"
        }
      ],
      "stateMutability": "view",
      "type": "function"
    },
    {
      "inputs": [
        {
          "internalType": "address",
          "name": "",
          "type": "address"
        }
      ],
      "name": "whiteList",
      "outputs": [
        {
          "internalType": "bool",
          "name": "",
          "type": "bool"
        }
      ],
      "stateMutability": "view",
      "type": "function"
    },
    {
      "inputs": [
        {
          "internalType": "uint256",
          "name": "_pid",
          "type": "uint256"
        },
        {
          "internalType": "uint256",
          "name": "_amount",
          "type": "uint256"
        }
      ],
      "name": "withdraw",
      "outputs": [],
      "stateMutability": "nonpayable",
      "type": "function"
    }
  ],
  "transactionHash": "0x1cc12825e1c2d405cd82fc5cac8855fa93fbc990646d2f3a1727070607ff2fb7",
  "args": [
    "0x483Ed007BA31da2D570bA816F028135d1F0c60A6",
    "0xA8c344b867d0697197d4Df75c807cf023f537b38"
  ],
  "solcInputHash": "b16cb4cff57c4a504b00f7c7657c6ca8",
  "bytecode": "0x60a06040526495e27d7580600a55640ea1fc81ce600b556444502b18b2600c553480156200002c57600080fd5b50604051620037c3380380620037c38339810160408190526200004f91620000e5565b60006200005b620000e1565b600080546001600160a01b0319166001600160a01b0383169081178255604051929350917f8be0079c531659141344cd1fd0a4f28419497f9722a3daafe3b4186f6b6457e0908290a3506001805560609190911b6001600160601b031916608052600280546001600160a01b0319166001600160a01b039092169190911790556200013c565b3390565b60008060408385031215620000f8578182fd5b8251620001058162000123565b6020840151909250620001188162000123565b809150509250929050565b6001600160a01b03811681146200013957600080fd5b50565b60805160601c6136556200016e6000398061054152806119f3528061268b528061275e528061280b52506136556000f3fe608060405234801561001057600080fd5b50600436106102c75760003560e01c806381bdf98c1161017b578063c40d337b116100d8578063e2bbb1581161008c578063f2fde38b11610071578063f2fde38b1461051c578063f51475bf1461052f578063fd17c4e814610537576102c7565b8063e2bbb158146104f6578063e3d5b97314610509576102c7565b8063cc6db2da116100bd578063cc6db2da146103a9578063d7b79353146104db578063dfcedeee146104ee576102c7565b8063c40d337b146104c0578063c507aeaa146104c8576102c7565b806399d7e84a1161012f578063ac02cef311610114578063ac02cef31461049d578063ac1d0609146104a5578063b1c5d0a6146104b8576102c7565b806399d7e84a146104825780639dd2fcc31461048a576102c7565b806385935f3d1161016057806385935f3d146104455780638da5cb5b1461045857806393f1a40b14610460576102c7565b806381bdf98c1461042a57806384ec76f514610432576102c7565b8063441a3e701161022957806364482f79116101dd578063715018a6116101c2578063715018a61461040757806378db4c341461040f57806378ed5d1f14610417576102c7565b806364482f79146103ec57806369b02128146103ff576102c7565b806351eb05a61161020e57806351eb05a6146103b15780635312ea8e146103d1578063630b5ba1146103e4576102c7565b8063441a3e701461039657806346505f54146103a9576102c7565b80631526fe271161028057806331b108621161026557806331b1086214610366578063372c12b11461036e57806343d220ae1461038e576102c7565b80631526fe271461033a57806322f104021461035e576102c7565b8063041a84c9116102b1578063041a84c91461030a578063081e3eda1461031f5780630bb844bc14610327576102c7565b80626e5447146102cc578063033186e8146102ea575b600080fd5b6102d461053f565b6040516102e19190612d55565b60405180910390f35b6102fd6102f8366004612b6e565b610563565b6040516102e1919061356c565b61031d610318366004612b99565b6105b9565b005b6102fd610931565b61031d610335366004612b1a565b610937565b61034d610348366004612c05565b610aac565b6040516102e195949392919061359b565b6102fd610aed565b6102fd610afa565b61038161037c366004612b1a565b610b00565b6040516102e19190612dcd565b6102fd610b15565b61031d6103a4366004612cab565b610b21565b6102fd610d32565b6103c46103bf366004612c05565b610d3b565b6040516102e19190613530565b61031d6103df366004612c05565b610f11565b61031d61103f565b61031d6103fa366004612ccc565b6110d3565b6102fd61124a565b61031d611254565b6102fd61131f565b6102d4610425366004612c05565b611325565b6102d4611359565b61031d610440366004612bcd565b611375565b6102fd610453366004612c35565b61143b565b6102d46115e7565b61047361046e366004612c35565b611603565b6040516102e193929190613585565b6102fd61162f565b61031d610498366004612b1a565b611635565b6102fd611776565b61031d6104b3366004612b36565b61177c565b61031d6118b0565b6102fd6118b2565b61031d6104d6366004612c59565b6118b8565b61031d6104e9366004612d04565b611c91565b6102d4611df3565b61031d610504366004612cab565b611e0f565b6102fd610517366004612bcd565b6121da565b61031d61052a366004612b1a565b612237565b6102fd61236d565b6102fd61239b565b7f000000000000000000000000000000000000000000000000000000000000000081565b600081815260066020908152604080832073ffffffffffffffffffffffffffffffffffffffff8616845290915281206002015464e8d4a5100081116105ad5764e8d4a510006105af565b805b9150505b92915050565b60035473ffffffffffffffffffffffffffffffffffffffff163314610613576040517f08c379a000000000000000000000000000000000000000000000000000000000815260040161060a9061326e565b60405180910390fd5b60026001541415610650576040517f08c379a000000000000000000000000000000000000000000000000000000000815260040161060a90613419565b600260015573ffffffffffffffffffffffffffffffffffffffff83166106a2576040517f08c379a000000000000000000000000000000000000000000000000000000000815260040161060a90613031565b600482815481106106af57fe5b600091825260209091206004600590920201015460ff166106fc576040517f08c379a000000000000000000000000000000000000000000000000000000000815260040161060a906132cb565b64e8d4a51000811015801561071757506501d1a94a20008111155b61074d576040517f08c379a000000000000000000000000000000000000000000000000000000000815260040161060a90612e29565b610755612ac8565b61075e83610d3b565b600084815260066020908152604080832073ffffffffffffffffffffffffffffffffffffffff89168452909152812091925061079a8686610563565b90506107a78686836123a1565b6107e7670de0b6b3a76400006107db85600001516107e164e8d4a510006107db8a896000015461247e90919063ffffffff16565b906124d2565b9061247e565b60018301558154610833906108079064e8d4a51000906107db908861247e565b835461082d906108229064e8d4a51000906107db908761247e565b60608701519061251b565b9061255d565b6060840152600480548491908790811061084957fe5b6000918252602080832084516005939093020191825583810151600183015560408085015160028085019190915560608601516003850155608090950151600490930180547fffffffffffffffffffffffffffffffffffffffffffffffffffffffffffffff0016931515939093179092558883526006815281832073ffffffffffffffffffffffffffffffffffffffff8b1680855291529181902090920186905590517f01abd62439b64f6c5dab6f94d56099495bd0c094f9c21f98f4d3562a21edb4ba9061091d90889085908990613585565b60405180910390a250506001805550505050565b60045490565b61093f61259c565b60005473ffffffffffffffffffffffffffffffffffffffff908116911614610993576040517f08c379a000000000000000000000000000000000000000000000000000000000815260040161060a90613239565b73ffffffffffffffffffffffffffffffffffffffff81166109e0576040517f08c379a000000000000000000000000000000000000000000000000000000000815260040161060a9061308e565b60025473ffffffffffffffffffffffffffffffffffffffff82811691161415610a35576040517f08c379a000000000000000000000000000000000000000000000000000000000815260040161060a90613450565b6002805473ffffffffffffffffffffffffffffffffffffffff8381167fffffffffffffffffffffffff0000000000000000000000000000000000000000831681179093556040519116919082907fd146fe330fdddf682413850a35b28edfccd4c4b53cfee802fd24950de5be1dbe90600090a35050565b60048181548110610ab957fe5b6000918252602090912060059091020180546001820154600283015460038401546004909401549294509092909160ff1685565b68022b1c8c1227a0000081565b600a5481565b60076020526000908152604090205460ff1681565b670de0b6b3a764000081565b60026001541415610b5e576040517f08c379a000000000000000000000000000000000000000000000000000000000815260040161060a90613419565b6002600155610b6b612ac8565b610b7483610d3b565b60008481526006602090815260408083203384529091529020805491925090831115610bcc576040517f08c379a000000000000000000000000000000000000000000000000000000000815260040161060a906131cb565b6000610bd83386610563565b9050610be53386836123a1565b8315610c3a578154610bf7908561251b565b8260000181905550610c3a338560058881548110610c1157fe5b60009182526020909120015473ffffffffffffffffffffffffffffffffffffffff1691906125a0565b610c6e670de0b6b3a76400006107db85600001516107e164e8d4a510006107db87896000015461247e90919063ffffffff16565b6001830155610cb6610c8964e8d4a510006107db878561247e565b60048781548110610c9657fe5b90600052602060002090600502016003015461251b90919063ffffffff16565b60048681548110610cc357fe5b906000526020600020906005020160030181905550843373ffffffffffffffffffffffffffffffffffffffff167ff279e6a1f5e320cca91135676d9cb6e44ca8a08c0b88342bcdb1144f6511b56886604051610d1f919061356c565b60405180910390a3505060018055505050565b64e8d4a5100081565b610d43612ac8565b60048281548110610d5057fe5b60009182526020918290206040805160a0810182526005909302909101805483526001810154938301849052600281015491830191909152600381015460608301526004015460ff16151560808201529150431115610f0c5760608101516080820151600090610dc257600954610dc6565b6008545b9050600082118015610dd85750600081115b15610e45576000610df684602001514361251b90919063ffffffff16565b90506000610e1d836107db87604001516107e1610e168a608001516121da565b879061247e565b9050610e40610e38856107db84670de0b6b3a764000061247e565b86519061255d565b855250505b4360208401526004805484919086908110610e5c57fe5b6000918252602091829020835160059290920201908155828201516001820155604080840151600283015560608401516003830155608090930151600490910180547fffffffffffffffffffffffffffffffffffffffffffffffffffffffffffffff00169115159190911790558401518451915186927f3be3541fc42237d611b30329040bfa4569541d156560acdbbae57640d20b8f4692610f019290918791613585565b60405180910390a250505b919050565b60026001541415610f4e576040517f08c379a000000000000000000000000000000000000000000000000000000000815260040161060a90613419565b6002600181905550600060048281548110610f6557fe5b600091825260208083208584526006825260408085203380875293528420805485825560018201869055600590940290910194509290610fbb9064e8d4a51000906107db90610fb49089610563565b859061247e565b905080846003015411610fcf576000610fde565b6003840154610fde908261251b565b8460030181905550610ff8338360058881548110610c1157fe5b843373ffffffffffffffffffffffffffffffffffffffff167fbb757047c2b5f3974fe26b7c10f732e7bce710b0952a71082702781e62ae059584604051610d1f919061356c565b60045460005b818110156110cf57611055612ac8565b6004828154811061106257fe5b60009182526020918290206040805160a08101825260059093029091018054835260018101549383019390935260028301549082018190526003830154606083015260049092015460ff16151560808201529150156110c6576110c482610d3b565b505b50600101611045565b5050565b6110db61259c565b60005473ffffffffffffffffffffffffffffffffffffffff90811691161461112f576040517f08c379a000000000000000000000000000000000000000000000000000000000815260040161060a90613239565b61113883610d3b565b5080156111475761114761103f565b6004838154811061115457fe5b600091825260209091206004600590920201015460ff16156111af576111a78261082d6004868154811061118457fe5b90600052602060002090600502016002015460085461251b90919063ffffffff16565b6008556111ea565b6111e68261082d600486815481106111c357fe5b90600052602060002090600502016002015460095461251b90919063ffffffff16565b6009555b81600484815481106111f857fe5b906000526020600020906005020160020181905550827fc0cfd54d2de2b55f1e6e108d3ec53ff0a1abe6055401d32c61e9433b747ef9f88360405161123d919061356c565b60405180910390a2505050565b6501d1a94a200081565b61125c61259c565b60005473ffffffffffffffffffffffffffffffffffffffff9081169116146112b0576040517f08c379a000000000000000000000000000000000000000000000000000000000815260040161060a90613239565b6000805460405173ffffffffffffffffffffffffffffffffffffffff909116907f8be0079c531659141344cd1fd0a4f28419497f9722a3daafe3b4186f6b6457e0908390a3600080547fffffffffffffffffffffffff0000000000000000000000000000000000000000169055565b600d5481565b6005818154811061133257fe5b60009182526020909120015473ffffffffffffffffffffffffffffffffffffffff16905081565b60025473ffffffffffffffffffffffffffffffffffffffff1681565b61137d61259c565b60005473ffffffffffffffffffffffffffffffffffffffff9081169116146113d1576040517f08c379a000000000000000000000000000000000000000000000000000000000815260040161060a90613239565b80156113df576113df61103f565b60006113f6600d544361251b90919063ffffffff16565b9050600061140c61140561236d565b839061247e565b6002549091506114329073ffffffffffffffffffffffffffffffffffffffff1682612646565b505043600d5550565b6000611445612ac8565b6004848154811061145257fe5b60009182526020918290206040805160a0810182526005909302909101805483526001810154938301939093526002830154908201526003820154606082015260049091015460ff161515608082015290506114ac612af9565b50600084815260066020908152604080832073ffffffffffffffffffffffffffffffffffffffff871684528252918290208251606080820185528254825260018301548285015260029092015493810193909352835190840151918401519091904311801561151a57508015155b1561159357600061153885602001514361251b90919063ffffffff16565b9050600061156c866080015161155057600954611554565b6008545b6107db88604001516107e1610e168b608001516121da565b905061158e611587846107db84670de0b6b3a764000061247e565b859061255d565b935050505b60006115b364e8d4a510006107db6115ab8a8c610563565b87519061247e565b60208501519091506115db906115d5670de0b6b3a76400006107db858861247e565b9061251b565b98975050505050505050565b60005473ffffffffffffffffffffffffffffffffffffffff1690565b600660209081526000928352604080842090915290825290208054600182015460029092015490919083565b60095481565b61163d61259c565b60005473ffffffffffffffffffffffffffffffffffffffff908116911614611691576040517f08c379a000000000000000000000000000000000000000000000000000000000815260040161060a90613239565b73ffffffffffffffffffffffffffffffffffffffff8116158015906116d1575060035473ffffffffffffffffffffffffffffffffffffffff828116911614155b611707576040517f08c379a000000000000000000000000000000000000000000000000000000000815260040161060a906134d3565b600380547fffffffffffffffffffffffff00000000000000000000000000000000000000001673ffffffffffffffffffffffffffffffffffffffff83169081179091556040517f4c0c07d0b548b824a1b998eb4d11fccf1cfbc1e47edcdb309970ba88315eb30390600090a250565b600c5481565b61178461259c565b60005473ffffffffffffffffffffffffffffffffffffffff9081169116146117d8576040517f08c379a000000000000000000000000000000000000000000000000000000000815260040161060a90613239565b73ffffffffffffffffffffffffffffffffffffffff8216611825576040517f08c379a000000000000000000000000000000000000000000000000000000000815260040161060a90613328565b73ffffffffffffffffffffffffffffffffffffffff82166000818152600760205260409081902080547fffffffffffffffffffffffffffffffffffffffffffffffffffffffffffffff0016841515179055517fc551bbb22d0406dbfb8b6b7740cc521bcf44e1106029cf899c19b6a8e4c99d51906118a4908490612dcd565b60405180910390a25050565b565b60085481565b6118c061259c565b60005473ffffffffffffffffffffffffffffffffffffffff908116911614611914576040517f08c379a000000000000000000000000000000000000000000000000000000000815260040161060a90613239565b6040517f70a0823100000000000000000000000000000000000000000000000000000000815260009073ffffffffffffffffffffffffffffffffffffffff8516906370a0823190611969903090600401612d55565b60206040518083038186803b15801561198157600080fd5b505afa158015611995573d6000803e3d6000fd5b505050506040513d601f19601f820116820180604052508101906119b99190612c1d565b10156119f1576040517f08c379a000000000000000000000000000000000000000000000000000000000815260040161060a90613202565b7f000000000000000000000000000000000000000000000000000000000000000073ffffffffffffffffffffffffffffffffffffffff168373ffffffffffffffffffffffffffffffffffffffff161415611a77576040517f08c379a000000000000000000000000000000000000000000000000000000000815260040161060a90612f40565b8015611a8557611a8561103f565b8115611aa057600854611a98908561255d565b600855611ab1565b600954611aad908561255d565b6009555b60058054600180820183557f036b6384b5eca791c62761152d0c79bb0604c104a5fb6f4eb0703f3154bb3db090910180547fffffffffffffffffffffffff00000000000000000000000000000000000000001673ffffffffffffffffffffffffffffffffffffffff87169081179091556040805160a081018252600080825243602083019081529282018a8152606083018281528915156080850190815260048054808a018255945293517f8a35acfbc15ff81a39ae7d344fd709f28e8600b4aa8c65c6b64bfe7fe36bd19b9389029384015593517f8a35acfbc15ff81a39ae7d344fd709f28e8600b4aa8c65c6b64bfe7fe36bd19c830155517f8a35acfbc15ff81a39ae7d344fd709f28e8600b4aa8c65c6b64bfe7fe36bd19d82015591517f8a35acfbc15ff81a39ae7d344fd709f28e8600b4aa8c65c6b64bfe7fe36bd19e830155517f8a35acfbc15ff81a39ae7d344fd709f28e8600b4aa8c65c6b64bfe7fe36bd19f90910180547fffffffffffffffffffffffffffffffffffffffffffffffffffffffffffffff00169115159190911790559154611c529161251b565b7f18caa0724a26384928efe604ae6ddc99c242548876259770fc88fcb7e719d8fa8685604051611c83929190613575565b60405180910390a350505050565b611c9961259c565b60005473ffffffffffffffffffffffffffffffffffffffff908116911614611ced576040517f08c379a000000000000000000000000000000000000000000000000000000000815260040161060a90613239565b600084118015611cfd5750600083115b8015611d095750600082115b611d3f576040517f08c379a000000000000000000000000000000000000000000000000000000000815260040161060a90612f9d565b64e8d4a51000611d538361082d878761255d565b14611d8a576040517f08c379a000000000000000000000000000000000000000000000000000000000815260040161060a906133bc565b8015611d9857611d9861103f565b611da26000611375565b600a849055600b839055600c8290556040517f915e4ab3f3ef4bbf4ac884cc65c42daeb5c26ee4c0d5b0e7cc2a85025a5f5f5490611de590869086908690613585565b60405180910390a150505050565b60035473ffffffffffffffffffffffffffffffffffffffff1681565b60026001541415611e4c576040517f08c379a000000000000000000000000000000000000000000000000000000000815260040161060a90613419565b6002600155611e59612ac8565b611e6283610d3b565b6000848152600660209081526040808320338452909152902060808201519192509080611e9e57503360009081526007602052604090205460ff165b611ed4576040517f08c379a000000000000000000000000000000000000000000000000000000000815260040161060a906130eb565b6000611ee03386610563565b825490915015611ef557611ef53386836123a1565b83156120f157600060058681548110611f0a57fe5b6000918252602090912001546040517f70a0823100000000000000000000000000000000000000000000000000000000815273ffffffffffffffffffffffffffffffffffffffff909116906370a0823190611f69903090600401612d55565b60206040518083038186803b158015611f8157600080fd5b505afa158015611f95573d6000803e3d6000fd5b505050506040513d601f19601f82011682018060405250810190611fb99190612c1d565b9050611ff833308760058a81548110611fce57fe5b60009182526020909120015473ffffffffffffffffffffffffffffffffffffffff16929190612832565b6120b8816005888154811061200957fe5b6000918252602090912001546040517f70a0823100000000000000000000000000000000000000000000000000000000815273ffffffffffffffffffffffffffffffffffffffff909116906370a0823190612068903090600401612d55565b60206040518083038186803b15801561208057600080fd5b505afa158015612094573d6000803e3d6000fd5b505050506040513d601f19601f820116820180604052508101906115d59190612c1d565b83549095506120c7908661255d565b83556120ea6120df64e8d4a510006107db888661247e565b60608601519061255d565b6060850152505b612125670de0b6b3a76400006107db85600001516107e164e8d4a510006107db87896000015461247e90919063ffffffff16565b8260010181905550826004868154811061213b57fe5b6000918252602091829020835160059290920201908155908201516001820155604080830151600283015560608301516003830155608090920151600490910180547fffffffffffffffffffffffffffffffffffffffffffffffffffffffffffffff001691151591909117905551859033907f90890809c654f11d6e72a28fa60149770a0d11ec6c92319d6ceb2bb0a4ea1a1590610d1f90889061356c565b600081156122105761220964e8d4a510006107db600b5468022b1c8c1227a0000061247e90919063ffffffff16565b9050610f0c565b6105b364e8d4a510006107db600c5468022b1c8c1227a0000061247e90919063ffffffff16565b61223f61259c565b60005473ffffffffffffffffffffffffffffffffffffffff908116911614612293576040517f08c379a000000000000000000000000000000000000000000000000000000000815260040161060a90613239565b73ffffffffffffffffffffffffffffffffffffffff81166122e0576040517f08c379a000000000000000000000000000000000000000000000000000000000815260040161060a90612ee3565b6000805460405173ffffffffffffffffffffffffffffffffffffffff808516939216917f8be0079c531659141344cd1fd0a4f28419497f9722a3daafe3b4186f6b6457e091a3600080547fffffffffffffffffffffffff00000000000000000000000000000000000000001673ffffffffffffffffffffffffffffffffffffffff92909216919091179055565b600061239664e8d4a510006107db600a5468022b1c8c1227a0000061247e90919063ffffffff16565b905090565b600b5481565b6123a9612af9565b50600082815260066020908152604080832073ffffffffffffffffffffffffffffffffffffffff871684528252808320815160608101835281548082526001830154948201949094526002909101549181019190915291906124169064e8d4a51000906107db908661247e565b9050600061244e670de0b6b3a76400006107db6004888154811061243657fe5b6000918252602090912060059091020154859061247e565b9050600061246984602001518361251b90919063ffffffff16565b90506124758782612646565b50505050505050565b60008261248d575060006105b3565b8282028284828161249a57fe5b04146105ad576040517f08c379a000000000000000000000000000000000000000000000000000000000815260040161060a9061316e565b600061251483836040518060400160405280601a81526020017f536166654d6174683a206469766973696f6e206279207a65726f000000000000815250612859565b9392505050565b600061251483836040518060400160405280601e81526020017f536166654d6174683a207375627472616374696f6e206f766572666c6f7700008152506128aa565b6000828201838110156105ad576040517f08c379a000000000000000000000000000000000000000000000000000000000815260040161060a90612ffa565b3390565b6126418363a9059cbb60e01b84846040516024016125bf929190612da7565b604080517fffffffffffffffffffffffffffffffffffffffffffffffffffffffffffffffe08184030181529190526020810180517bffffffffffffffffffffffffffffffffffffffffffffffffffffffff167fffffffff00000000000000000000000000000000000000000000000000000000909316929092179091526128f0565b505050565b80156110cf576040517f70a08231000000000000000000000000000000000000000000000000000000008152819073ffffffffffffffffffffffffffffffffffffffff7f000000000000000000000000000000000000000000000000000000000000000016906370a08231906126c0903090600401612d55565b60206040518083038186803b1580156126d857600080fd5b505afa1580156126ec573d6000803e3d6000fd5b505050506040513d601f19601f820116820180604052508101906127109190612c1d565b101561271e5761271e6118b0565b6040517f70a0823100000000000000000000000000000000000000000000000000000000815260009073ffffffffffffffffffffffffffffffffffffffff7f000000000000000000000000000000000000000000000000000000000000000016906370a0823190612793903090600401612d55565b60206040518083038186803b1580156127ab57600080fd5b505afa1580156127bf573d6000803e3d6000fd5b505050506040513d601f19601f820116820180604052508101906127e39190612c1d565b9050818110156127f1578091505b61264173ffffffffffffffffffffffffffffffffffffffff7f00000000000000000000000000000000000000000000000000000000000000001684846125a0565b612853846323b872dd60e01b8585856040516024016125bf93929190612d76565b50505050565b60008183612894576040517f08c379a000000000000000000000000000000000000000000000000000000000815260040161060a9190612dd8565b5060008385816128a057fe5b0495945050505050565b600081848411156128e8576040517f08c379a000000000000000000000000000000000000000000000000000000000815260040161060a9190612dd8565b505050900390565b6060612952826040518060400160405280602081526020017f5361666542455032303a206c6f772d6c6576656c2063616c6c206661696c65648152508573ffffffffffffffffffffffffffffffffffffffff166129a69092919063ffffffff16565b80519091501561264157808060200190518101906129709190612be9565b612641576040517f08c379a000000000000000000000000000000000000000000000000000000000815260040161060a90612e86565b60606129b584846000856129bd565b949350505050565b60606129c885612ac2565b6129fe576040517f08c379a000000000000000000000000000000000000000000000000000000000815260040161060a90613385565b600060608673ffffffffffffffffffffffffffffffffffffffff168587604051612a289190612d39565b60006040518083038185875af1925050503d8060008114612a65576040519150601f19603f3d011682016040523d82523d6000602084013e612a6a565b606091505b50915091508115612a7e5791506129b59050565b805115612a8e5780518082602001fd5b836040517f08c379a000000000000000000000000000000000000000000000000000000000815260040161060a9190612dd8565b3b151590565b6040518060a00160405280600081526020016000815260200160008152602001600081526020016000151581525090565b60405180606001604052806000815260200160008152602001600081525090565b600060208284031215612b2b578081fd5b81356105ad816135ec565b60008060408385031215612b48578081fd5b8235612b53816135ec565b91506020830135612b6381613611565b809150509250929050565b60008060408385031215612b80578182fd5b8235612b8b816135ec565b946020939093013593505050565b600080600060608486031215612bad578081fd5b8335612bb8816135ec565b95602085013595506040909401359392505050565b600060208284031215612bde578081fd5b81356105ad81613611565b600060208284031215612bfa578081fd5b81516105ad81613611565b600060208284031215612c16578081fd5b5035919050565b600060208284031215612c2e578081fd5b5051919050565b60008060408385031215612c47578182fd5b823591506020830135612b63816135ec565b60008060008060808587031215612c6e578081fd5b843593506020850135612c80816135ec565b92506040850135612c9081613611565b91506060850135612ca081613611565b939692955090935050565b60008060408385031215612cbd578182fd5b50508035926020909101359150565b600080600060608486031215612ce0578283fd5b83359250602084013591506040840135612cf981613611565b809150509250925092565b60008060008060808587031215612d19578384fd5b8435935060208501359250604085013591506060850135612ca081613611565b60008251612d4b8184602087016135c0565b9190910192915050565b73ffffffffffffffffffffffffffffffffffffffff91909116815260200190565b73ffffffffffffffffffffffffffffffffffffffff9384168152919092166020820152604081019190915260600190565b73ffffffffffffffffffffffffffffffffffffffff929092168252602082015260400190565b901515815260200190565b6000602082528251806020840152612df78160408501602087016135c0565b601f017fffffffffffffffffffffffffffffffffffffffffffffffffffffffffffffffe0169190910160400192915050565b6020808252602a908201527f4d61737465724368656656323a20496e76616c6964206e657720626f6f73742060408201527f6d756c7469706c69657200000000000000000000000000000000000000000000606082015260800190565b6020808252602a908201527f5361666542455032303a204245503230206f7065726174696f6e20646964206e60408201527f6f74207375636365656400000000000000000000000000000000000000000000606082015260800190565b60208082526026908201527f4f776e61626c653a206e6577206f776e657220697320746865207a65726f206160408201527f6464726573730000000000000000000000000000000000000000000000000000606082015260800190565b60208082526029908201527f54494b54414b20746f6b656e2063616e277420626520616464656420746f206660408201527f61726d20706f6f6c730000000000000000000000000000000000000000000000606082015260800190565b60208082526030908201527f4d61737465724368656656323a2074696b74616b2072617465206d757374206260408201527f652067726561746572207468616e203000000000000000000000000000000000606082015260800190565b6020808252601b908201527f536166654d6174683a206164646974696f6e206f766572666c6f770000000000604082015260600190565b6020808252602c908201527f4d61737465724368656656323a2054686520757365722061646472657373206d60408201527f7573742062652076616c69640000000000000000000000000000000000000000606082015260800190565b6020808252602e908201527f4d61737465724368656656323a204275726e2061646d696e206164647265737360408201527f206d7573742062652076616c6964000000000000000000000000000000000000606082015260800190565b60208082526042908201527f4d61737465724368656656323a205468652061646472657373206973206e6f7460408201527f20617661696c61626c6520746f206465706f73697420696e207468697320706f60608201527f6f6c000000000000000000000000000000000000000000000000000000000000608082015260a00190565b60208082526021908201527f536166654d6174683a206d756c7469706c69636174696f6e206f766572666c6f60408201527f7700000000000000000000000000000000000000000000000000000000000000606082015260800190565b60208082526016908201527f77697468647261773a20496e73756666696369656e7400000000000000000000604082015260600190565b60208082526011908201527f4e6f6e6520424550323020746f6b656e73000000000000000000000000000000604082015260600190565b6020808252818101527f4f776e61626c653a2063616c6c6572206973206e6f7420746865206f776e6572604082015260600190565b60208082526029908201527f4f776e61626c653a2063616c6c6572206973206e6f742074686520626f6f737460408201527f20636f6e74726163740000000000000000000000000000000000000000000000606082015260800190565b60208082526030908201527f4d61737465724368656656323a204f6e6c7920726567756c6172206661726d2060408201527f636f756c6420626520626f6f7374656400000000000000000000000000000000606082015260800190565b60208082526032908201527f4d61737465724368656656323a20546865207768697465206c6973742061646460408201527f72657373206d7573742062652076616c69640000000000000000000000000000606082015260800190565b6020808252601d908201527f416464726573733a2063616c6c20746f206e6f6e2d636f6e7472616374000000604082015260600190565b60208082526025908201527f4d61737465724368656656323a20546f74616c2072617465206d75737420626560408201527f2031653132000000000000000000000000000000000000000000000000000000606082015260800190565b6020808252601f908201527f5265656e7472616e637947756172643a207265656e7472616e742063616c6c00604082015260600190565b60208082526041908201527f4d61737465724368656656323a204275726e2061646d696e206164647265737360408201527f206973207468652073616d6520776974682063757272656e742061646472657360608201527f7300000000000000000000000000000000000000000000000000000000000000608082015260a00190565b60208082526036908201527f4d61737465724368656656323a204e657720626f6f737420636f6e747261637460408201527f2061646472657373206d7573742062652076616c696400000000000000000000606082015260800190565b600060a0820190508251825260208301516020830152604083015160408301526060830151606083015260808301511515608083015292915050565b90815260200190565b9182521515602082015260400190565b9283526020830191909152604082015260600190565b9485526020850193909352604084019190915260608301521515608082015260a00190565b60005b838110156135db5781810151838201526020016135c3565b838111156128535750506000910152565b73ffffffffffffffffffffffffffffffffffffffff8116811461360e57600080fd5b50565b801515811461360e57600080fdfea26469706673582212207ee72d013e0d007c95283a5d1b03a8f2a39136c9f900908971fdc972fc61e6b064736f6c634300060c0033",
  "devdoc": {
    "kind": "dev",
    "methods": {
      "add(uint256,address,bool,bool)": {
        "params": {
          "_allocPoint": "Number of allocation points for the new pool.",
          "_isRegular": "Whether the pool is regular or special. LP farms are always \"regular\". \"Special\" pools are",
          "_lpToken": "Address of the LP BEP-20 token.",
          "_withUpdate": "Whether call \"massUpdatePools\" operation. only for TIKTAK distributions within PantiktakSwap products."
        }
      },
      "burntiktak(bool)": {
        "params": {
          "_withUpdate": "Whether call \"massUpdatePools\" operation."
        }
      },
      "constructor": {
        "params": {
          "_TIKTAK": "The TIKTAK token contract address.",
          "_burnAdmin": "The address of burn admin."
        }
      },
      "deposit(uint256,uint256)": {
        "params": {
          "_amount": "Amount of LP tokens to deposit.",
          "_pid": "The id of the pool. See `poolInfo`."
        }
      },
      "emergencyWithdraw(uint256)": {
        "params": {
          "_pid": "The id of the pool. See `poolInfo`."
        }
      },
      "getBoostMultiplier(address,uint256)": {
        "params": {
          "_pid": "The pool id.",
          "_user": "The user address."
        }
      },
      "owner()": {
        "details": "Returns the address of the current owner."
      },
      "pendingtiktak(uint256,address)": {
        "params": {
          "_pid": "The id of the pool. See `poolInfo`.",
          "_user": "Address of the user."
        }
      },
      "renounceOwnership()": {
        "details": "Leaves the contract without owner. It will not be possible to call `onlyOwner` functions anymore. Can only be called by the current owner. NOTE: Renouncing ownership will leave the contract without an owner, thereby removing any functionality that is only available to the owner."
      },
      "set(uint256,uint256,bool)": {
        "params": {
          "_allocPoint": "New number of allocation points for the pool.",
          "_pid": "The id of the pool. See `poolInfo`.",
          "_withUpdate": "Whether call \"massUpdatePools\" operation."
        }
      },
      "tiktakPerBlock(bool)": {
        "params": {
          "_isRegular": "If the pool belongs to regular or special."
        }
      },
      "transferOwnership(address)": {
        "details": "Transfers ownership of the contract to a new account (`newOwner`). Can only be called by the current owner."
      },
      "updateBoostContract(address)": {
        "params": {
          "_newBoostContract": "The new address for handling all the share boosts."
        }
      },
      "updateBoostMultiplier(address,uint256,uint256)": {
        "params": {
          "_newMultiplier": "New boost multiplier.",
          "_pid": "The pool id for the boost factor updates.",
          "_user": "The user address for boost factor updates."
        }
      },
      "updateBurnAdmin(address)": {
        "params": {
          "_newAdmin": "The new burn admin address."
        }
      },
      "updatePool(uint256)": {
        "params": {
          "_pid": "The id of the pool. See `poolInfo`."
        },
        "returns": {
          "pool": "Returns the pool that was updated."
        }
      },
      "updateWhiteList(address,bool)": {
        "params": {
          "_isValid": "The flag for valid or invalid.",
          "_user": "The address to be updated."
        }
      },
      "updatetiktakRate(uint256,uint256,uint256,bool)": {
        "params": {
          "_burnRate": "The % of TIKTAK to burn each block.",
          "_regularFarmRate": "The % of TIKTAK to regular pools each block.",
          "_specialFarmRate": "The % of TIKTAK to special pools each block.",
          "_withUpdate": "Whether call \"massUpdatePools\" operation."
        }
      },
      "withdraw(uint256,uint256)": {
        "params": {
          "_amount": "Amount of LP tokens to withdraw.",
          "_pid": "The id of the pool. See `poolInfo`."
        }
      }
    },
    "version": 1
  },
  "userdoc": {
    "kind": "user",
    "methods": {
      "BOOST_PRECISION()": {
        "notice": "Basic boost factor, none boosted user's boost factor"
      },
      "MASTERCHEF_TIKTAK_PER_BLOCK()": {
        "notice": "40 tiktaks per block in MCV1"
      },
      "MAX_BOOST_PRECISION()": {
        "notice": "Hard limit for maxmium boost factor, it must greater than BOOST_PRECISION"
      },
      "TIKTAK()": {
        "notice": "Address of TIKTAK contract."
      },
      "TIKTAK_RATE_TOTAL_PRECISION()": {
        "notice": "total tiktak rate = toBurn + toRegular + toSpecial"
      },
      "add(uint256,address,bool,bool)": {
        "notice": "Add a new pool. Can only be called by the owner. DO NOT add the same LP token more than once. Rewards will be messed up if you do."
      },
      "boostContract()": {
        "notice": "The contract handles the share boosts."
      },
      "burnAdmin()": {
        "notice": "The only address can withdraw all the burn TIKTAK."
      },
      "burntiktak(bool)": {
        "notice": "Send TIKTAK pending for burn to `burnAdmin`."
      },
      "deposit(uint256,uint256)": {
        "notice": "Deposit LP tokens to pool."
      },
      "emergencyWithdraw(uint256)": {
        "notice": "Withdraw without caring about the rewards. EMERGENCY ONLY."
      },
      "getBoostMultiplier(address,uint256)": {
        "notice": "Get user boost multiplier for specific pool id."
      },
      "harvestRewardsFromOwner()": {
        "notice": "Harvests TIKTAK from `MASTER_CHEF` MCV1 and pool `MASTER_PID` to MCV2."
      },
      "lpToken(uint256)": {
        "notice": "Address of the LP token for each MCV2 pool."
      },
      "massUpdatePools()": {
        "notice": "Update tiktak reward for all the active pools. Be careful of gas spending!"
      },
      "pendingtiktak(uint256,address)": {
        "notice": "View function for checking pending TIKTAK rewards."
      },
      "poolInfo(uint256)": {
        "notice": "Info of each MCV2 pool."
      },
      "poolLength()": {
        "notice": "Returns the number of MCV2 pools."
      },
      "set(uint256,uint256,bool)": {
        "notice": "Update the given pool's TIKTAK allocation point. Can only be called by the owner."
      },
      "tiktakPerBlock(bool)": {
        "notice": "Calculates and returns the `amount` of TIKTAK per block."
      },
      "tiktakPerBlockToBurn()": {
        "notice": "Calculates and returns the `amount` of TIKTAK per block to burn."
      },
      "tiktakRateToBurn()": {
        "notice": "The last block number of TIKTAK burn action being executed.TIKTAK distribute % for burn"
      },
      "tiktakRateToRegularFarm()": {
        "notice": "TIKTAK distribute % for regular farm pool"
      },
      "tiktakRateToSpecialFarm()": {
        "notice": "TIKTAK distribute % for special pools"
      },
      "totalRegularAllocPoint()": {
        "notice": "Total regular allocation points. Must be the sum of all regular pools' allocation points."
      },
      "totalSpecialAllocPoint()": {
        "notice": "Total special allocation points. Must be the sum of all special pools' allocation points."
      },
      "updateBoostContract(address)": {
        "notice": "Update boost contract address and max boost factor."
      },
      "updateBoostMultiplier(address,uint256,uint256)": {
        "notice": "Update user boost factor."
      },
      "updateBurnAdmin(address)": {
        "notice": "Update burn admin address."
      },
      "updatePool(uint256)": {
        "notice": "Update reward variables for the given pool."
      },
      "updateWhiteList(address,bool)": {
        "notice": "Update whitelisted addresses for special pools."
      },
      "updatetiktakRate(uint256,uint256,uint256,bool)": {
        "notice": "Update the % of TIKTAK distributions for burn, regular pools and special pools."
      },
      "userInfo(uint256,address)": {
        "notice": "Info of each pool user."
      },
      "whiteList(address)": {
        "notice": "The whitelist of addresses allowed to deposit in special pools."
      },
      "withdraw(uint256,uint256)": {
        "notice": "Withdraw LP tokens from pool."
      }
    },
    "notice": "The (older) MasterChef contract gives out a constant number of TIKTAK tokens per block. It is the only address with minting rights for TIKTAK. The idea for this MasterChef V2 (MCV2) contract is therefore to be the owner of a dummy token that is deposited into the MasterChef V1 (MCV1) contract. The allocation point for this pool on MCV1 is the total allocation point for all pools that receive incentives.",
    "version": 1
  },
  "storageLayout": {
    "storage": [
      {
        "astId": 30,
        "contract": "contracts/MasterchefV2.sol:MasterChefV2",
        "label": "_owner",
        "offset": 0,
        "slot": "0",
        "type": "t_address"
      },
      {
        "astId": 533,
        "contract": "contracts/MasterchefV2.sol:MasterChefV2",
        "label": "_status",
        "offset": 0,
        "slot": "1",
        "type": "t_uint256"
      },
      {
        "astId": 606,
        "contract": "contracts/MasterchefV2.sol:MasterChefV2",
        "label": "burnAdmin",
        "offset": 0,
        "slot": "2",
        "type": "t_address"
      },
      {
        "astId": 609,
        "contract": "contracts/MasterchefV2.sol:MasterChefV2",
        "label": "boostContract",
        "offset": 0,
        "slot": "3",
        "type": "t_address"
      },
      {
        "astId": 613,
        "contract": "contracts/MasterchefV2.sol:MasterChefV2",
        "label": "poolInfo",
        "offset": 0,
        "slot": "4",
        "type": "t_array(t_struct(PoolInfo)600_storage)dyn_storage"
      },
      {
        "astId": 617,
        "contract": "contracts/MasterchefV2.sol:MasterChefV2",
        "label": "lpToken",
        "offset": 0,
        "slot": "5",
        "type": "t_array(t_contract(IBEP20)2457)dyn_storage"
      },
      {
        "astId": 624,
        "contract": "contracts/MasterchefV2.sol:MasterChefV2",
        "label": "userInfo",
        "offset": 0,
        "slot": "6",
        "type": "t_mapping(t_uint256,t_mapping(t_address,t_struct(UserInfo)589_storage))"
      },
      {
        "astId": 629,
        "contract": "contracts/MasterchefV2.sol:MasterChefV2",
        "label": "whiteList",
        "offset": 0,
        "slot": "7",
        "type": "t_mapping(t_address,t_bool)"
      },
      {
        "astId": 632,
        "contract": "contracts/MasterchefV2.sol:MasterChefV2",
        "label": "totalRegularAllocPoint",
        "offset": 0,
        "slot": "8",
        "type": "t_uint256"
      },
      {
        "astId": 635,
        "contract": "contracts/MasterchefV2.sol:MasterChefV2",
        "label": "totalSpecialAllocPoint",
        "offset": 0,
        "slot": "9",
        "type": "t_uint256"
      },
      {
        "astId": 664,
        "contract": "contracts/MasterchefV2.sol:MasterChefV2",
        "label": "tiktakRateToBurn",
        "offset": 0,
        "slot": "10",
        "type": "t_uint256"
      },
      {
        "astId": 668,
        "contract": "contracts/MasterchefV2.sol:MasterChefV2",
        "label": "tiktakRateToRegularFarm",
        "offset": 0,
        "slot": "11",
        "type": "t_uint256"
      },
      {
        "astId": 672,
        "contract": "contracts/MasterchefV2.sol:MasterChefV2",
        "label": "tiktakRateToSpecialFarm",
        "offset": 0,
        "slot": "12",
        "type": "t_uint256"
      },
      {
        "astId": 674,
        "contract": "contracts/MasterchefV2.sol:MasterChefV2",
        "label": "lastBurnedBlock",
        "offset": 0,
        "slot": "13",
        "type": "t_uint256"
      }
    ],
    "types": {
      "t_address": {
        "encoding": "inplace",
        "label": "address",
        "numberOfBytes": "20"
      },
      "t_array(t_contract(IBEP20)2457)dyn_storage": {
        "base": "t_contract(IBEP20)2457",
        "encoding": "dynamic_array",
        "label": "contract IBEP20[]",
        "numberOfBytes": "32"
      },
      "t_array(t_struct(PoolInfo)600_storage)dyn_storage": {
        "base": "t_struct(PoolInfo)600_storage",
        "encoding": "dynamic_array",
        "label": "struct MasterChefV2.PoolInfo[]",
        "numberOfBytes": "32"
      },
      "t_bool": {
        "encoding": "inplace",
        "label": "bool",
        "numberOfBytes": "1"
      },
      "t_contract(IBEP20)2457": {
        "encoding": "inplace",
        "label": "contract IBEP20",
        "numberOfBytes": "20"
      },
      "t_mapping(t_address,t_bool)": {
        "encoding": "mapping",
        "key": "t_address",
        "label": "mapping(address => bool)",
        "numberOfBytes": "32",
        "value": "t_bool"
      },
      "t_mapping(t_address,t_struct(UserInfo)589_storage)": {
        "encoding": "mapping",
        "key": "t_address",
        "label": "mapping(address => struct MasterChefV2.UserInfo)",
        "numberOfBytes": "32",
        "value": "t_struct(UserInfo)589_storage"
      },
      "t_mapping(t_uint256,t_mapping(t_address,t_struct(UserInfo)589_storage))": {
        "encoding": "mapping",
        "key": "t_uint256",
        "label": "mapping(uint256 => mapping(address => struct MasterChefV2.UserInfo))",
        "numberOfBytes": "32",
        "value": "t_mapping(t_address,t_struct(UserInfo)589_storage)"
      },
      "t_struct(PoolInfo)600_storage": {
        "encoding": "inplace",
        "label": "struct MasterChefV2.PoolInfo",
        "members": [
          {
            "astId": 591,
            "contract": "contracts/MasterchefV2.sol:MasterChefV2",
            "label": "acctiktakPerShare",
            "offset": 0,
            "slot": "0",
            "type": "t_uint256"
          },
          {
            "astId": 593,
            "contract": "contracts/MasterchefV2.sol:MasterChefV2",
            "label": "lastRewardBlock",
            "offset": 0,
            "slot": "1",
            "type": "t_uint256"
          },
          {
            "astId": 595,
            "contract": "contracts/MasterchefV2.sol:MasterChefV2",
            "label": "allocPoint",
            "offset": 0,
            "slot": "2",
            "type": "t_uint256"
          },
          {
            "astId": 597,
            "contract": "contracts/MasterchefV2.sol:MasterChefV2",
            "label": "totalBoostedShare",
            "offset": 0,
            "slot": "3",
            "type": "t_uint256"
          },
          {
            "astId": 599,
            "contract": "contracts/MasterchefV2.sol:MasterChefV2",
            "label": "isRegular",
            "offset": 0,
            "slot": "4",
            "type": "t_bool"
          }
        ],
        "numberOfBytes": "160"
      },
      "t_struct(UserInfo)589_storage": {
        "encoding": "inplace",
        "label": "struct MasterChefV2.UserInfo",
        "members": [
          {
            "astId": 584,
            "contract": "contracts/MasterchefV2.sol:MasterChefV2",
            "label": "amount",
            "offset": 0,
            "slot": "0",
            "type": "t_uint256"
          },
          {
            "astId": 586,
            "contract": "contracts/MasterchefV2.sol:MasterChefV2",
            "label": "rewardDebt",
            "offset": 0,
            "slot": "1",
            "type": "t_uint256"
          },
          {
            "astId": 588,
            "contract": "contracts/MasterchefV2.sol:MasterChefV2",
            "label": "boostMultiplier",
            "offset": 0,
            "slot": "2",
            "type": "t_uint256"
          }
        ],
        "numberOfBytes": "96"
      },
      "t_uint256": {
        "encoding": "inplace",
        "label": "uint256",
        "numberOfBytes": "32"
      }
    }
  }
}